{
  "contractName": "AIMarketPlace",
  "abi": [
    {
      "inputs": [],
      "stateMutability": "nonpayable",
      "type": "constructor"
    },
    {
      "anonymous": false,
      "inputs": [
        {
          "indexed": false,
          "internalType": "uint256",
          "name": "modelId",
          "type": "uint256"
        },
        {
          "indexed": false,
          "internalType": "string",
          "name": "name",
          "type": "string"
        },
        {
          "indexed": false,
          "internalType": "address",
          "name": "creator",
          "type": "address"
        },
        {
          "indexed": false,
          "internalType": "uint256",
          "name": "price",
          "type": "uint256"
        }
      ],
      "name": "ModelListed",
      "type": "event"
    },
    {
      "anonymous": false,
      "inputs": [
        {
          "indexed": false,
          "internalType": "uint256",
          "name": "modelId",
          "type": "uint256"
        },
        {
          "indexed": false,
          "internalType": "address",
          "name": "buyer",
          "type": "address"
        }
      ],
      "name": "ModelPurchased",
      "type": "event"
    },
    {
      "anonymous": false,
      "inputs": [
        {
          "indexed": false,
          "internalType": "uint256",
          "name": "modelId",
          "type": "uint256"
        },
        {
          "indexed": false,
          "internalType": "uint8",
          "name": "rating",
          "type": "uint8"
        }
      ],
      "name": "ModelRated",
      "type": "event"
    },
    {
      "anonymous": false,
      "inputs": [
        {
          "indexed": false,
          "internalType": "string",
          "name": "message",
          "type": "string"
        }
      ],
      "name": "RatingFailed",
      "type": "event"
    },
    {
      "inputs": [],
      "name": "contractBalance",
      "outputs": [
        {
          "internalType": "uint256",
          "name": "",
          "type": "uint256"
        }
      ],
      "stateMutability": "view",
      "type": "function",
      "constant": true
    },
    {
      "inputs": [],
      "name": "modelCounter",
      "outputs": [
        {
          "internalType": "uint256",
          "name": "",
          "type": "uint256"
        }
      ],
      "stateMutability": "view",
      "type": "function",
      "constant": true
    },
    {
      "inputs": [
        {
          "internalType": "uint256",
          "name": "",
          "type": "uint256"
        }
      ],
      "name": "models",
      "outputs": [
        {
          "internalType": "string",
          "name": "name",
          "type": "string"
        },
        {
          "internalType": "string",
          "name": "description",
          "type": "string"
        },
        {
          "internalType": "uint256",
          "name": "price",
          "type": "uint256"
        },
        {
          "internalType": "address payable",
          "name": "creator",
          "type": "address"
        },
        {
          "internalType": "uint8",
          "name": "totalRatings",
          "type": "uint8"
        },
        {
          "internalType": "uint256",
          "name": "ratingSum",
          "type": "uint256"
        },
        {
          "internalType": "bool",
          "name": "isPurchased",
          "type": "bool"
        }
      ],
      "stateMutability": "view",
      "type": "function",
      "constant": true
    },
    {
      "inputs": [],
      "name": "owner",
      "outputs": [
        {
          "internalType": "address",
          "name": "",
          "type": "address"
        }
      ],
      "stateMutability": "view",
      "type": "function",
      "constant": true
    },
    {
      "inputs": [
        {
          "internalType": "string",
          "name": "name",
          "type": "string"
        },
        {
          "internalType": "string",
          "name": "description",
          "type": "string"
        },
        {
          "internalType": "uint256",
          "name": "price",
          "type": "uint256"
        }
      ],
      "name": "listModel",
      "outputs": [],
      "stateMutability": "nonpayable",
      "type": "function"
    },
    {
      "inputs": [
        {
          "internalType": "uint256",
          "name": "modelId",
          "type": "uint256"
        }
      ],
      "name": "purchaseModel",
      "outputs": [],
      "stateMutability": "payable",
      "type": "function",
      "payable": true
    },
    {
      "inputs": [
        {
          "internalType": "uint256",
          "name": "modelId",
          "type": "uint256"
        },
        {
          "internalType": "uint8",
          "name": "rating",
          "type": "uint8"
        }
      ],
      "name": "rateModel",
      "outputs": [],
      "stateMutability": "nonpayable",
      "type": "function"
    },
    {
      "inputs": [],
      "name": "withdrawFunds",
      "outputs": [],
      "stateMutability": "nonpayable",
      "type": "function"
    },
    {
      "inputs": [
        {
          "internalType": "uint256",
          "name": "modelId",
          "type": "uint256"
        }
      ],
      "name": "getModelDetails",
      "outputs": [
        {
          "internalType": "string",
          "name": "name",
          "type": "string"
        },
        {
          "internalType": "string",
          "name": "description",
          "type": "string"
        },
        {
          "internalType": "uint256",
          "name": "price",
          "type": "uint256"
        },
        {
          "internalType": "address",
          "name": "creator",
          "type": "address"
        },
        {
          "internalType": "uint8",
          "name": "averageRating",
          "type": "uint8"
        },
        {
          "internalType": "bool",
          "name": "isPurchased",
          "type": "bool"
        }
      ],
      "stateMutability": "view",
      "type": "function",
      "constant": true
    },
    {
      "inputs": [],
      "name": "getAvailableModels",
      "outputs": [
        {
          "internalType": "uint256[]",
          "name": "",
          "type": "uint256[]"
        }
      ],
      "stateMutability": "view",
      "type": "function",
      "constant": true
    }
  ],
  "bytecode": "0x608060405234801561001057600080fd5b5033600260006101000a81548173ffffffffffffffffffffffffffffffffffffffff021916908373ffffffffffffffffffffffffffffffffffffffff160217905550611bfe806100616000396000f3fe6080604052600436106100915760003560e01c80638b7afe2e116100595780638b7afe2e146101845780638da5cb5b146101af578063cc408b8a146101da578063dc74686214610205578063fa0cf4981461022157610091565b806312ee1c0e146100965780631c788a9a146100bf57806324600fc3146100e857806331fc042f146100ff5780636a030ca914610141575b600080fd5b3480156100a257600080fd5b506100bd60048036038101906100b89190611041565b61024c565b005b3480156100cb57600080fd5b506100e660048036038101906100e191906110e9565b6104b1565b005b3480156100f457600080fd5b506100fd610682565b005b34801561010b57600080fd5b50610126600480360381019061012191906110c0565b6107cc565b604051610138969594939291906115da565b60405180910390f35b34801561014d57600080fd5b50610168600480360381019061016391906110c0565b6109f0565b60405161017b979695949392919061155d565b60405180910390f35b34801561019057600080fd5b50610199610b7c565b6040516101a69190611789565b60405180910390f35b3480156101bb57600080fd5b506101c4610b82565b6040516101d19190611520565b60405180910390f35b3480156101e657600080fd5b506101ef610ba8565b6040516101fc9190611789565b60405180910390f35b61021f600480360381019061021a91906110c0565b610bae565b005b34801561022d57600080fd5b50610236610d94565b604051610243919061153b565b60405180910390f35b6000835111610290576040517f08c379a000000000000000000000000000000000000000000000000000000000815260040161028790611669565b60405180910390fd5b60008251116102d4576040517f08c379a00000000000000000000000000000000000000000000000000000000081526004016102cb906116e9565b60405180910390fd5b60008111610317576040517f08c379a000000000000000000000000000000000000000000000000000000000815260040161030e90611769565b60405180910390fd5b6040518060e001604052808481526020018381526020018281526020013373ffffffffffffffffffffffffffffffffffffffff168152602001600060ff168152602001600081526020016000151581525060008060015481526020019081526020016000206000820151816000019080519060200190610398929190610f0c565b5060208201518160010190805190602001906103b5929190610f0c565b506040820151816002015560608201518160030160006101000a81548173ffffffffffffffffffffffffffffffffffffffff021916908373ffffffffffffffffffffffffffffffffffffffff16021790555060808201518160030160146101000a81548160ff021916908360ff16021790555060a0820151816004015560c08201518160050160006101000a81548160ff0219169083151502179055509050507fabc397ccc80c841b298c907d59647c74c037c83fa022c96a656586ade33b74b660015484338460405161048c94939291906117cd565b60405180910390a1600160008154809291906104a790611a5a565b9190505550505050565b8160015481106104f6576040517f08c379a00000000000000000000000000000000000000000000000000000000081526004016104ed90611649565b60405180910390fd5b8160018160ff161015801561050f575060058160ff1611155b61054e576040517f08c379a000000000000000000000000000000000000000000000000000000000815260040161054590611729565b60405180910390fd5b600080600086815260200190815260200160002090508060050160009054906101000a900460ff166105ea577f153d4101cdce5855c259d44b5443c3816e8b7e4d115fe3119eb7609b594e659f6040516105a7906116c9565b60405180910390a16040517f08c379a00000000000000000000000000000000000000000000000000000000081526004016105e1906116c9565b60405180910390fd5b8360ff1681600401600082825461060191906118f8565b9250508190555080600301601481819054906101000a900460ff168092919061062990611aa3565b91906101000a81548160ff021916908360ff160217905550507f2949eaecf3f493ad44e848775c4935e28f53f1f7ad5957f2d1cffb9c8929e0768585604051610673929190611819565b60405180910390a15050505050565b600260009054906101000a900473ffffffffffffffffffffffffffffffffffffffff1673ffffffffffffffffffffffffffffffffffffffff163373ffffffffffffffffffffffffffffffffffffffff1614610712576040517f08c379a000000000000000000000000000000000000000000000000000000000815260040161070990611749565b60405180910390fd5b600060035411610757576040517f08c379a000000000000000000000000000000000000000000000000000000000815260040161074e906116a9565b60405180910390fd5b600260009054906101000a900473ffffffffffffffffffffffffffffffffffffffff1673ffffffffffffffffffffffffffffffffffffffff166108fc6003549081150290604051600060405180830381858888f193505050501580156107c1573d6000803e3d6000fd5b506000600381905550565b60608060008060008086600154811061081a576040517f08c379a000000000000000000000000000000000000000000000000000000000815260040161081190611649565b60405180910390fd5b60008060008a815260200190815260200160002090506000808260030160149054906101000a900460ff1660ff1611610854576000610879565b8160030160149054906101000a900460ff1660ff168260040154610878919061194e565b5b9050816000018260010183600201548460030160009054906101000a900473ffffffffffffffffffffffffffffffffffffffff16848660050160009054906101000a900460ff168580546108cc90611a28565b80601f01602080910402602001604051908101604052809291908181526020018280546108f890611a28565b80156109455780601f1061091a57610100808354040283529160200191610945565b820191906000526020600020905b81548152906001019060200180831161092857829003601f168201915b5050505050955084805461095890611a28565b80601f016020809104026020016040519081016040528092919081815260200182805461098490611a28565b80156109d15780601f106109a6576101008083540402835291602001916109d1565b820191906000526020600020905b8154815290600101906020018083116109b457829003601f168201915b5050505050945098509850985098509850985050505091939550919395565b6000602052806000526040600020600091509050806000018054610a1390611a28565b80601f0160208091040260200160405190810160405280929190818152602001828054610a3f90611a28565b8015610a8c5780601f10610a6157610100808354040283529160200191610a8c565b820191906000526020600020905b815481529060010190602001808311610a6f57829003601f168201915b505050505090806001018054610aa190611a28565b80601f0160208091040260200160405190810160405280929190818152602001828054610acd90611a28565b8015610b1a5780601f10610aef57610100808354040283529160200191610b1a565b820191906000526020600020905b815481529060010190602001808311610afd57829003601f168201915b5050505050908060020154908060030160009054906101000a900473ffffffffffffffffffffffffffffffffffffffff16908060030160149054906101000a900460ff16908060040154908060050160009054906101000a900460ff16905087565b60035481565b600260009054906101000a900473ffffffffffffffffffffffffffffffffffffffff1681565b60015481565b806001548110610bf3576040517f08c379a0000000000000000000000000000000000000000000000000000000008152600401610bea90611649565b60405180910390fd5b8160008082815260200190815260200160002060050160009054906101000a900460ff1615610c57576040517f08c379a0000000000000000000000000000000000000000000000000000000008152600401610c4e90611689565b60405180910390fd5b600080600085815260200190815260200160002090508060020154341015610cb4576040517f08c379a0000000000000000000000000000000000000000000000000000000008152600401610cab90611709565b60405180910390fd5b8060030160009054906101000a900473ffffffffffffffffffffffffffffffffffffffff1673ffffffffffffffffffffffffffffffffffffffff166108fc349081150290604051600060405180830381858888f19350505050158015610d1e573d6000803e3d6000fd5b5060018160050160006101000a81548160ff0219169083151502179055503460036000828254610d4e91906118f8565b925050819055507fc8581808129c51c0416692a5ea1b58e080ae8f21e384eefe2f2dc85d231d12ba8433604051610d869291906117a4565b60405180910390a150505050565b6060600080600090505b600154811015610df15760008082815260200190815260200160002060050160009054906101000a900460ff16610dde578180610dda90611a5a565b9250505b8080610de990611a5a565b915050610d9e565b5060008167ffffffffffffffff811115610e34577f4e487b7100000000000000000000000000000000000000000000000000000000600052604160045260246000fd5b604051908082528060200260200182016040528015610e625781602001602082028036833780820191505090505b5090506000805b600154811015610f025760008082815260200190815260200160002060050160009054906101000a900460ff16610eef5780838381518110610ed4577f4e487b7100000000000000000000000000000000000000000000000000000000600052603260045260246000fd5b6020026020010181815250508180610eeb90611a5a565b9250505b8080610efa90611a5a565b915050610e69565b5081935050505090565b828054610f1890611a28565b90600052602060002090601f016020900481019282610f3a5760008555610f81565b82601f10610f5357805160ff1916838001178555610f81565b82800160010185558215610f81579182015b82811115610f80578251825591602001919060010190610f65565b5b509050610f8e9190610f92565b5090565b5b80821115610fab576000816000905550600101610f93565b5090565b6000610fc2610fbd84611873565b611842565b905082815260208101848484011115610fda57600080fd5b610fe58482856119e6565b509392505050565b600082601f830112610ffe57600080fd5b813561100e848260208601610faf565b91505092915050565b60008135905061102681611b9a565b92915050565b60008135905061103b81611bb1565b92915050565b60008060006060848603121561105657600080fd5b600084013567ffffffffffffffff81111561107057600080fd5b61107c86828701610fed565b935050602084013567ffffffffffffffff81111561109957600080fd5b6110a586828701610fed565b92505060406110b686828701611017565b9150509250925092565b6000602082840312156110d257600080fd5b60006110e084828501611017565b91505092915050565b600080604083850312156110fc57600080fd5b600061110a85828601611017565b925050602061111b8582860161102c565b9150509250929050565b600061113183836114f3565b60208301905092915050565b61114681611991565b82525050565b6111558161197f565b82525050565b6000611166826118b3565b61117081856118d6565b935061117b836118a3565b8060005b838110156111ac5781516111938882611125565b975061119e836118c9565b92505060018101905061117f565b5085935050505092915050565b6111c2816119a3565b82525050565b60006111d3826118be565b6111dd81856118e7565b93506111ed8185602086016119f5565b6111f681611b89565b840191505092915050565b600061120e6010836118e7565b91507f496e76616c6964206d6f64656c204944000000000000000000000000000000006000830152602082019050919050565b600061124e6014836118e7565b91507f4e616d652063616e6e6f7420626520656d7074790000000000000000000000006000830152602082019050919050565b600061128e6017836118e7565b91507f4d6f64656c20616c7265616479207075726368617365640000000000000000006000830152602082019050919050565b60006112ce6014836118e7565b91507f4e6f2066756e647320746f2077697468647261770000000000000000000000006000830152602082019050919050565b600061130e6025836118e7565b91507f4d6f64656c206d75737420626520707572636861736564206265666f7265207260008301527f6174696e670000000000000000000000000000000000000000000000000000006020830152604082019050919050565b6000611374601b836118e7565b91507f4465736372697074696f6e2063616e6e6f7420626520656d70747900000000006000830152602082019050919050565b60006113b46024836118e7565b91507f496e73756666696369656e742066756e647320746f207075726368617365206d60008301527f6f64656c000000000000000000000000000000000000000000000000000000006020830152604082019050919050565b600061141a601e836118e7565b91507f526174696e67206d757374206265206265747765656e203120616e64203500006000830152602082019050919050565b600061145a6022836118e7565b91507f4f6e6c79206f776e65722063616e20706572666f726d2074686973206163746960008301527f6f6e0000000000000000000000000000000000000000000000000000000000006020830152604082019050919050565b60006114c0601c836118e7565b91507f5072696365206d7573742062652067726561746572207468616e2030000000006000830152602082019050919050565b6114fc816119cf565b82525050565b61150b816119cf565b82525050565b61151a816119d9565b82525050565b6000602082019050611535600083018461114c565b92915050565b60006020820190508181036000830152611555818461115b565b905092915050565b600060e0820190508181036000830152611577818a6111c8565b9050818103602083015261158b81896111c8565b905061159a6040830188611502565b6115a7606083018761113d565b6115b46080830186611511565b6115c160a0830185611502565b6115ce60c08301846111b9565b98975050505050505050565b600060c08201905081810360008301526115f481896111c8565b9050818103602083015261160881886111c8565b90506116176040830187611502565b611624606083018661114c565b6116316080830185611511565b61163e60a08301846111b9565b979650505050505050565b6000602082019050818103600083015261166281611201565b9050919050565b6000602082019050818103600083015261168281611241565b9050919050565b600060208201905081810360008301526116a281611281565b9050919050565b600060208201905081810360008301526116c2816112c1565b9050919050565b600060208201905081810360008301526116e281611301565b9050919050565b6000602082019050818103600083015261170281611367565b9050919050565b60006020820190508181036000830152611722816113a7565b9050919050565b600060208201905081810360008301526117428161140d565b9050919050565b600060208201905081810360008301526117628161144d565b9050919050565b60006020820190508181036000830152611782816114b3565b9050919050565b600060208201905061179e6000830184611502565b92915050565b60006040820190506117b96000830185611502565b6117c6602083018461114c565b9392505050565b60006080820190506117e26000830187611502565b81810360208301526117f481866111c8565b9050611803604083018561114c565b6118106060830184611502565b95945050505050565b600060408201905061182e6000830185611502565b61183b6020830184611511565b9392505050565b6000604051905081810181811067ffffffffffffffff8211171561186957611868611b5a565b5b8060405250919050565b600067ffffffffffffffff82111561188e5761188d611b5a565b5b601f19601f8301169050602081019050919050565b6000819050602082019050919050565b600081519050919050565b600081519050919050565b6000602082019050919050565b600082825260208201905092915050565b600082825260208201905092915050565b6000611903826119cf565b915061190e836119cf565b9250827fffffffffffffffffffffffffffffffffffffffffffffffffffffffffffffffff0382111561194357611942611acd565b5b828201905092915050565b6000611959826119cf565b9150611964836119cf565b92508261197457611973611afc565b5b828204905092915050565b600061198a826119af565b9050919050565b600061199c826119af565b9050919050565b60008115159050919050565b600073ffffffffffffffffffffffffffffffffffffffff82169050919050565b6000819050919050565b600060ff82169050919050565b82818337600083830152505050565b60005b83811015611a135780820151818401526020810190506119f8565b83811115611a22576000848401525b50505050565b60006002820490506001821680611a4057607f821691505b60208210811415611a5457611a53611b2b565b5b50919050565b6000611a65826119cf565b91507fffffffffffffffffffffffffffffffffffffffffffffffffffffffffffffffff821415611a9857611a97611acd565b5b600182019050919050565b6000611aae826119d9565b915060ff821415611ac257611ac1611acd565b5b600182019050919050565b7f4e487b7100000000000000000000000000000000000000000000000000000000600052601160045260246000fd5b7f4e487b7100000000000000000000000000000000000000000000000000000000600052601260045260246000fd5b7f4e487b7100000000000000000000000000000000000000000000000000000000600052602260045260246000fd5b7f4e487b7100000000000000000000000000000000000000000000000000000000600052604160045260246000fd5b6000601f19601f8301169050919050565b611ba3816119cf565b8114611bae57600080fd5b50565b611bba816119d9565b8114611bc557600080fd5b5056fea26469706673582212201d48f3e4b68e65a7a9089805affc988e84c8306b971bb3fdd7bca772596bb88f64736f6c63430008000033",
  "immutableReferences": {},
  "source": "// SPDX-License-Identifier: MIT\r\npragma solidity ^0.8.0;\r\n\r\ncontract AIMarketPlace {\r\n    struct Model {\r\n        string name;\r\n        string description;\r\n        uint256 price;\r\n        address payable creator;\r\n        uint8 totalRatings;\r\n        uint256 ratingSum;\r\n        bool isPurchased;\r\n    }\r\n\r\n    mapping(uint256 => Model) public models;\r\n    uint256 public modelCounter;\r\n    address public owner;\r\n    uint256 public contractBalance;\r\n\r\n    event ModelListed(uint256 modelId, string name, address creator, uint256 price);\r\n    event ModelPurchased(uint256 modelId, address buyer);\r\n    event ModelRated(uint256 modelId, uint8 rating);\r\n    event RatingFailed(string message);\r\n\r\n\r\n    modifier onlyOwner() {\r\n        require(msg.sender == owner, \"Only owner can perform this action\");\r\n        _;\r\n    }\r\n\r\n    modifier validModel(uint256 modelId) {\r\n        require(modelId < modelCounter, \"Invalid model ID\");\r\n        _;\r\n    }\r\n\r\n    modifier notPurchased(uint256 modelId) {\r\n        require(!models[modelId].isPurchased, \"Model already purchased\");\r\n        _;\r\n    }\r\n\r\n    modifier validRating(uint8 rating) {\r\n        require(rating >= 1 && rating <= 5, \"Rating must be between 1 and 5\");\r\n        _;\r\n    }\r\n\r\n    constructor() {\r\n        owner = msg.sender;\r\n    }\r\n\r\n    // Function to list a new AI model\r\n    function listModel(string memory name, string memory description, uint256 price) public {\r\n        require(bytes(name).length > 0, \"Name cannot be empty\");\r\n        require(bytes(description).length > 0, \"Description cannot be empty\");\r\n        require(price > 0, \"Price must be greater than 0\");\r\n\r\n        models[modelCounter] = Model({\r\n            name: name,\r\n            description: description,\r\n            price: price,\r\n            creator: payable(msg.sender),\r\n            totalRatings: 0,\r\n            ratingSum: 0,\r\n            isPurchased: false\r\n        });\r\n\r\n        emit ModelListed(modelCounter, name, msg.sender, price);\r\n        modelCounter++;\r\n    }\r\n\r\n    // Function to purchase an AI model\r\n    function purchaseModel(uint256 modelId) public payable validModel(modelId) notPurchased(modelId) {\r\n        Model storage model = models[modelId];\r\n        require(msg.value >= model.price, \"Insufficient funds to purchase model\");\r\n\r\n        model.creator.transfer(msg.value);  // Transfer payment to the model creator\r\n        model.isPurchased = true;\r\n\r\n        contractBalance += msg.value;\r\n        emit ModelPurchased(modelId, msg.sender);\r\n    }\r\n\r\n    // Function to rate a purchased AI model\r\n    function rateModel(uint256 modelId, uint8 rating) public validModel(modelId) validRating(rating) {\r\n        Model storage model = models[modelId];\r\n        if (!model.isPurchased) {\r\n            emit RatingFailed(\"Model must be purchased before rating\");\r\n            revert(\"Model must be purchased before rating\");\r\n        }\r\n\r\n        model.ratingSum += rating;\r\n        model.totalRatings++;\r\n\r\n        emit ModelRated(modelId, rating);\r\n    }\r\n\r\n    // Function for the contract owner to withdraw funds\r\n    function withdrawFunds() public onlyOwner {\r\n        require(contractBalance > 0, \"No funds to withdraw\");\r\n        payable(owner).transfer(contractBalance);\r\n        contractBalance = 0;\r\n    }\r\n\r\n    // Function to retrieve the details of a specific model\r\n    function getModelDetails(uint256 modelId) public view validModel(modelId) returns (\r\n        string memory name,\r\n        string memory description,\r\n        uint256 price,\r\n        address creator,\r\n        uint8 averageRating,\r\n        bool isPurchased\r\n    ) {\r\n        Model storage model = models[modelId];\r\n        uint8 avgRating = model.totalRatings > 0 ? uint8(model.ratingSum / model.totalRatings) : 0;\r\n        return (model.name, model.description, model.price, model.creator, avgRating, model.isPurchased);\r\n    }\r\n\r\n    // Function to get all available (non-purchased) models\r\n    function getAvailableModels() public view returns (uint256[] memory) {\r\n        uint256 availableCount;\r\n        for (uint256 i = 0; i < modelCounter; i++) {\r\n            if (!models[i].isPurchased) {\r\n                availableCount++;\r\n            }\r\n        }\r\n\r\n        uint256[] memory availableModels = new uint256[](availableCount);\r\n        uint256 index = 0;\r\n        for (uint256 i = 0; i < modelCounter; i++) {\r\n            if (!models[i].isPurchased) {\r\n                availableModels[index] = i;\r\n                index++;\r\n            }\r\n        }\r\n\r\n        return availableModels;\r\n    }\r\n}\r\n",
  "sourcePath": "C:\\Users\\Doszh\\Desktop\\DAppMarketPlace\\contracts\\AIMarketPlace.sol",
  "compiler": {
    "name": "solc",
    "version": "0.8.0+commit.c7dfd78e.Emscripten.clang"
  },
  "schemaVersion": "3.4.16",
  "updatedAt": "2024-10-03T19:45:51.191Z",
  "networkType": "ethereum",
  "devdoc": {
    "kind": "dev",
    "methods": {},
    "version": 1
  },
  "userdoc": {
    "kind": "user",
    "methods": {},
    "version": 1
  }
}